:1007F4001209A412095B1209841205A41208DC125E
:0B080400049F7FC87E0012078080E880
:0209B60000221D
:0D096A00C2927FF47E01120780D29200221B
:10087600EF1FAA0670011E4A600BE4FDEDC394014A
:0508860050EE0D80F7AB
:01088B00224A
:10078000EF1FAA0670011E4A6013E4FCFDC3ED943E
:0D0790007DEC940050EA0DBD00010C80F0DE
:01079D002239
:060717008F828E83A9050C
:10071D00E4FBEBC3995015C292AF82AE83120780F2
:0C072D00D292AF82AE831207800B80E6F0
:01073900229D
:10088C00538E7F5389F0438901758A78758CECC23D
:04089C008DD28C224B
:0800030012088CD2A9D2AF2231
:03000B000204E903
:0D04E900C0E0C0F0C083C082C0D075D00854
:1004F600758A78758CEC051FE51F7002051EFFAE28
:100506001EE4FCFD7B64FAF9F8C31201FA50097582
:080516001E00751F00120529EB
:0B051E00D0D0D082D083D0F0D0E032EB
:10091600D2B51209B6D2B41209B6C2B41209B6C219
:02092600B522F8
:10092800C2B51209B6D2B41209B6D2B51209B6C206
:02093800B422E7
:0A099000D2B51209B6A2B4C2B52216
:0206CC008F1C81
:1006CE00E4F51DE51C25E0F51C92B41209B6D2B571
:1006DE001209B6C2B51209B6051DE51DC394084030
:0406EE00E20209908B
:10064C00D2B41209B6E4F51CE51D25E0F51DD2B5B2
:10065C001209B630B402051DC2B51209B6051CE567
:0B066C001CC3940840E2120990AF1D6F
:010677002260
:10093A008F181209167F901206CCAF181206CC0235
:02094A0009287A
:10080F001209167F911206CC7F037E001208761212
:09081F00064C8F1B120928AF1BC7
:0108280022AD
:1008A000C2B1C2B28FA0D2B37F017E00120780C254
:0408B000B3D2B222EB
:1008B400C2B2D2B18FA0D2B37F017E00120780C230
:0408C400B3D2B222D7
:1008C8007F381208A07F0F1208A07F0C1208A07FA3
:0408D800060208A06C
:0A099A007F011208A07F020208A0EE
:10073A008B1A8A1B891CAB1AAA1BA91C1201D3FF8C
:10074A0060101208B47401251CF51CE4351BF51B56
:03075A0080E42216
:100678008F1AE51AD394644009E51A75F0648485E5
:10068800F01AE51A75F00A842430FF1208B4E51A46
:0C06980075F00A84E5F02430FF0208B47D
:10085D008D1AEF24FE600904700EE51A24808004C1
:09086D00E51A24C0FF1208A022C4
:0908290001150801161901141E45
:0F094C00751508751619E4F514F51275130222C6
:100529000511E51170020510C39513E510951240E8
:100539002CE4F510F5110514E514648094BC401DF4
:10054900E4F5140516E516648094BC4010E4F5162C
:0D0559000515E515648094984003E4F51540
:010566002272
:1002100053797374656D2053656C662D74657374C2
:100220003A00497427732044617974696D652C0024
:1002300049742773204E696768742C005269676897
:10024000743F0053797374656D20496E69743A0088
:10025000483A00202020202020204175746F002083
:10026000202020204D616E75616C0054696D653AE7
:1002700020005365743A00486F7572203D20004D90
:10028000696E203D2000536563203D2000485F4C8F
:10029000696D6974203D200053312C53323A20534C
:1002A0006574207A65726F0053313A20496E632C71
:0902B0002053323A20446563003A
:1008F00012099A7BFF7A02791012073AE4FD7F020F
:0309000002085D8D
:100567008F1812099A7BFF3002067A0279228004DB
:100577007A02793012073AE4FD7F0212085DE51826
:1005870075F06484FF120678AF181206787D097F2C
:0D0597000212085D7BFF7A02793C02073AF0
:02079E008F17B3
:1007A000E4F518E518C3951750107FFF1208B47FC1
:0A07B000507E00120780051880E952
:0107BA00221C
:1009030012099A7BFF7A02794312073AE4FD7F02C8
:0309130002085D7A
:1004010012099A7BFF7A02795012073AAF2112063C
:10041100787F251208B47BFF3002067A0279538077
:10042100047A02795F12073AE4FD7F0212085D7BCC
:10043100FF7A02796B12073AAF151206787F3A12EA
:1004410008B4AF161206787F3A1208B4AF14020648
:010451007832
:100345008F178C188D1912099A7BFF7A0279721210
:10035500073AE51724FE601214601714601C240385
:1003650070217BFF7A02797780167BFF7A02797F8D
:10037500800E7BFF7A02798680067BFF7A02798D73
:1003850012073AAF19120678E4FD7F0212085DE5FF
:100395001724FD70087BFF7A02799880067BFF7A27
:0703A5000279A812073A22B9
:060832000121000122116A
:0F095B00D2B01209B61209B620B00375E76022B8
:1005A40012080FAB07EBC3947F400475216322EB61
:1005B400D39400E45003F52122F51AF51975188037
:1005C40075173FEBFD7C00E4120119AB1AAA19A9B7
:0B05D40018A81712000E1201528F2110
:0105DF0022F9
:0909A40012075D12061A0209ADEA
:10075D001208C8E4FF12093A12080F12080F8F177A
:10076D00E517D3943C4004C2028004D202AF1712A5
:02077D0005670E
:01077F002257
:10061A001209031209777F0412079E12094C7F04FC
:10062A0012079E7F0312093A12080F7F0412079ECF
:10063A007FC87E001207801200037F0412079E0201
:02064A0009ADF8
:0D0977007580FF7590FF75A0FF75B0FF2221
:0909AD007D027F327E0002071773
:0A083800C100C101012400012300EA
:1008DC00E523600DE521C395225003C2B722D2B7A0
:0408EC0022D2B7223B
:10049F00E52314601414601614601E146026146093
:1004AF002E24057034D2028002C202020401E51428
:1004BF00FD3395E0FC7F03801DE516FD3395E0FCD1
:1004CF007F028012E515FD3395E0FC7F018007E583
:0A04DF0022FD7C007F041203452279
:0C0984001206F21205E01207D80207BBB1
:1006F20020900F20000C7F0A7E00120780209002BB
:10070200D20020910F20010C7F0A7E001207802068
:050712009102D201225A
:1005E00020900930010630910375240120910930D3
:1005F000000630900375240230900EE524B4010902
:10060000300006E4F524C2002230910DE524B40246
:0A06100008300105E4F524C20122C0
:1007D800E5247017300009309006C2007524032202
:0C07E800300108309105C2017524042284
:1007BB00E52424FE600D14600D14600D2403700CF1
:0D07CB000206A40208430203AC12045222ED
:1006A400300124309121C201E52324FE600E146040
:1006B4000F1460102403700F752302227523032284
:0806C4007523042275230122B5
:10084300300016309013C200E52324FB6008240413
:0A08530070077523052275230122AA
:1003AC00E523146015146017146019146028146088
:1003BC00372405703C7523018037E4F5238032E443
:1003CC00F514802DC3E516648094BB50040516808B
:1003DC0020E4F516801BC3E5156480949750040542
:1003EC0015800EE4F5158009E522C3941E50020514
:0503FC0022E4F52422BB
:10045200E52324FE60111460131460221460312419
:10046200047036B2B68032E4F514802DD3E51664FA
:1004720080948040041516802075163B801BD3E5BE
:10048200156480948040041515800E751517800937
:0D049200E522D3940E40021522E4F5242249
:10000E00EC4D6011E8497017ED33EC3304600DE4EC
:10001E00FCFFFEFD22E933E8330470F80201BE1244
:10002E00018958046009E4CC248150062850090245
:10003E0001C82840030201C5C0E0EB4A7044B980F4
:10004E0006D0E0FB0201B4EF4E701CBD8008EBFF42
:10005E00EAFEE9FD80EBE98DF0A4FEE5F00200F783
:10006E00E9CDF9EAFEEBFFEF89F0A4FCE5F0CE89CD
:10007E00F0A42EFFE435F0CD89F0A42DFEE435F08A
:10008E008067EF4E7005BD80D780C3EF8BF0A4ACB8
:10009E00F0EE8BF0A42CFCE435F0F8EF8AF0A42CF3
:1000AE00E5F038FCE433CB8DF0A42CFCE5F03BF806
:1000BE00EE8AF0A42CFCE5F038F8E433CF89F0A4F6
:1000CE002CFCE5F038CF3400CE89F0A42FFFE5F0FC
:1000DE003EFEE433C98DF0A42EFEE5F039CD8AF054
:1000EE00A42FFFE5F03EFEE43DFD33D0E0FB5007CC
:1000FE000BBB000F0201C8EC2CFCEF33FFEE33FEFE
:06010E00ED33FD0201A02B
:1001140075F020800E75F010800575F0087D007E66
:10012400007F003392D530D5031201ECEC3340103C
:10013400EF33FFEE33FEED33FDEC33FCD5F0ED226F
:0E014400E5F0247EA2D513CC92E7CDCEFF22AB
:10015200EDD2E7CD33EC3392D524814006E4FFFEA5
:10016200FDFC22FCE4CFCECDCC24E0501174FF8004
:10017200EDC3CC13CCCD13CDCE13CECF13CF0470A1
:07018200F030D5DE0201ECB4
:10018900E9D2E7C933E833F892D5EDD2E7CD33ECBC
:0701990033FC5002B2D52235
:1001A000EC30E7100FBF000C0EBE00080DBD0004C0
:1001B0000BEB6014A2D5EB13FCED92E7FD2274FF6C
:1001C000FCFDFEFF22E480F8A2D574FF13FC7D80C5
:0301D000E480EFD9
:030000000202B940
:0C02B900787FE4F6D8FD75812402030074
:1001D300BB010689828A83E0225002E722BBFE022A
:0901E300E32289828A83E493225D
:0E01EC00C3E49FFFE49EFEE49DFDE49CFC2224
:1001FA00EB9FF5F0EA9E42F0E99D42F0EC6480C87C
:06020A0064809845F0221B
:1002C5000207F4E493A3F8E493A34003F68001F254
:1002D50008DFF48029E493A3F85407240CC8C3333A
:1002E500C4540F4420C8834004F456800146F6DF09
:1002F500E4800B0102040810204080900829E47E68
:10030500019360BCA3FF543F30E509541FFEE493FD
:10031500A360010ECF54C025E060A840B8E493A3C4
:10032500FAE493A3F8E493A3C8C582C8CAC583CAEF
:10033500F0A3C8C582C8CAC583CADFE9DEE780BEA7
:0108420000B5
:00000001FF
