:100782001208B712087B12089712023212085B1283
:07079200074F1203FF80EC8A
:0208C90000220B
:10079900EF1FAA0670011E4A600BE4FDEDC3940227
:0507A90050EE0D80F789
:0107AE002228
:10068A00EF1FAA0670011E4A6013E4FCFDC3ED9435
:0D069A0082EC940050EA0DBD00010C80F0D0
:0106A7002230
:0208CB00002209
:060644008F828E83A905E0
:10064A00E4FBEBC3995015C292AF82AE8312068ABD
:0C065A00D292AF82AE8312068A0B80E6BB
:010666002271
:1007AF00538E7F5389F0438901758A78758CECC21B
:0407BF008DD28C2229
:080003001207AFD2A9D2AF220F
:03000B00020449A3
:0D044900C0E0C0F0C083C082C0D075D008F4
:10045600758A78758CEC0529E52970020528FFAEAA
:1004660028E4FCFD7B64FAF9F8C31201B150097562
:08047600280075290012048919
:0B047E00D0D0D082D083D0F0D0E0328C
:10082500D2B51208C9D2B41208C9C2B41208C9C2D5
:02083500B522EA
:10083700C2B51208C9D2B41208C9D2B51208C9C2C2
:02084700B422D9
:0A08A300D2B51208C9A2B4C2B522F2
:0205F9008F1E53
:1005FB00E4F51FE51E25E0F51E92B41208C9D2B52D
:10060B001208C9C2B51208C9051FE51FC3940840DB
:04061B00E20208A34C
:1005A100D2B41208C9E4F51EE51F25E0F51FD2B546
:1005B1001208C930B402051FC2B51208C9051EE5EB
:0B05C1001EC3940840E21208A3AF1F05
:0105CC00220C
:100849008F111208257F901205F9AF111205F902CF
:0208590008375E
:10071B001208257F911205F97F037E0012079912AB
:09072B0005A18F1D120837AF1D56
:0107340022A2
:1007C300C2B1C2B28FA0D2B37F017E0012068AC229
:0407D300B3D2B222C9
:1007D700C2B2D2B18FA0D2B37F017E0012068AC205
:0407E700B3D2B222B5
:1007EB007F381207C37F0F1207C37F0C1207C37F1B
:0407FB00060207C328
:0A08AD007F011207C37F020207C398
:100667008B138A148915AB13AA14A915120143FF1A
:1006770060101207D774012515F515E43514F51424
:0306870080E422EA
:1005CD008F13E513D394644009E51375F0648485A6
:1005DD00F013E51375F00A842430FF1207D7E513E5
:0C05ED0075F00A84E5F02430FF0207D707
:100769008D13EF24FE600904700EE51324808004C4
:09077900E51324C0FF1207C3229E
:0907350001260801271901251E07
:0F086C00752608752719E4F525F5237524022252
:100489000522E52270020521C39524E52195234023
:100499002CE4F521F5220525E525648094BC401D51
:1004A900E4F5250527E527648094BC4010E4F52789
:0D04B9000526E526648094984003E4F526AE
:0104C6002213
:10000E0053797374656D2053656C662D74657374C6
:10001E003A00497427732044617974696D652C0028
:10002E0049742773204E696768742C00526967689B
:10003E00743F0053797374656D20496E69743A008C
:10004E00483A00202020202020204175746F002087
:10005E00202020204D616E75616C0054696D653AEB
:10006E0020005365743A00486F7572203D20004D94
:10007E00696E203D2000536563203D2000485F4C93
:10008E00696D6974203D200053312C53323A205350
:10009E006574207A65726F0053313A20496E632C75
:0900AE002053323A20446563003E
:1007FF001208AD7BFF7A00790E120667E4FD7F02C7
:03080F0002076974
:1004C7008F111208AD7BFF3002067A007920800475
:1004D7007A00792E120667E4FD7F02120769E5119B
:1004E70075F06484FF1205CDAF111205CD7D097F2C
:0D04F700021207697BFF7A00793A0206675E
:0206A8008F11B0
:1006AA00E4F512E512C3951150107FFF1207D77FA8
:0A06BA00507E0012068A051280E946
:0106C4002213
:100812001208AD7BFF7A007941120667E4FD7F0280
:0308220002076961
:10035D00E4FD7F011207697BFF7A00794E12066773
:10036D00AF2A1205CD7F251207D77BFF3002067A03
:10037D0000795180047A00795D120667E4FD7F02F1
:10038D001207697BFF7A007969120667AF2612059D
:10039D00CD7F3A1207D7AF271205CD7F3A1207D777
:0503AD00AF250205CDA3
:1001C7008F108C118D12E4FD7F011207697BFF7A76
:1001D700007970120667E51024FE60121460171488
:1001E700601C240370217BFF7A00797580167BFFE2
:1001F7007A00797D800E7BFF7A00798480067BFF09
:100207007A00798B120667AF121205CDE4FD7F02E3
:10021700120769E51024FD70087BFF7A0079968044
:0B022700067BFF7A0079A61206672212
:06073E00012A00012B144A
:0F087B00D2B01208C91208C920B00375E7602275
:10023200E4F51AF51BF51C12071B7410251CF8A611
:1002420007051CE51CC3940A40EDE4F51C74102557
:100252001CF8E6251BF51BE4351AF51A051CE51CEE
:10026200B40AEAAE1AAF1B7C007D0A12015C8F1041
:10027200E510C394FD4004E4F52A22E510D394026C
:100282005004752A6322C374FF9510FFE49400FEA4
:090292007C007D0312015C8F2A3F
:01029B002240
:0908B70012029C12053E0208C069
:10029C001207EB7F0112084912071B1207FF7F029E
:1002AC001206A8C2927F207E0312068AD2927F0485
:1002BC001206A8C2B67FF47E0112068AD2B67F045B
:1002CC001206A8C2B77F2C7E0112068AD2B77F0411
:1002DC001206A812071B8F10E510D394784004C2A5
:1002EC00028004D202AF101204C77FDC7E05020626
:0102FC008A77
:10053E0012081212088A7F041206A812086C7F0491
:10054E001206A87F0312084912071B7F041206A881
:10055E007FC27E0112068A1200037F041206A812C1
:05056E0008C00208AD09
:0D088A007580FF7590FF75A0FF75B0FF220F
:0908C0007D027F327E0002064435
:0A074400C100C101012D00012C00CD
:10085B00E52C700CE52AD3952B5003C2B622D2B6E9
:01086B00226A
:10074F00E52C6013E52AC3952B500930B603C2B7C9
:0A075F0022D2B722D2B722D2B7226D
:1003FF00E52C14601414601614601E14602614602B
:10040F002E24057034D2028002C20202035DE5255C
:10041F00FD3395E0FC7F03801DE527FD3395E0FC60
:10042F007F028012E526FD3395E0FC7F018007E512
:0A043F002BFD7C007F041201C72290
:0C08970012061F1205041206FF0206C51F
:10061F0020900F20000C7F0A7E0012068A20900285
:10062F00D20020910F20010C7F0A7E0012068A2033
:05063F009102D201222E
:10050400209009300106309103752D0120910930A6
:100514000006309003752D0230900EE52DB40109CC
:10052400300006E4F52DC2002230910DE52DB40211
:0A05340008300105E4F52DC2012294
:1006FF00E52D7017300009309006C200752D0322CA
:0C070F00300108309105C201752D042254
:1006C500E52D24FE600D14600D14600D2403700CDF
:0D06D5000205730206E20202FD1203B222CA
:1005730030012A309127C2011208AD1208CBE52CB5
:1005830024FE600E14600F1460102403700F752C8A
:0E0593000222752C0322752C0422752C0122E5
:1006E200300019309016C2001208ADE52C24FB60D0
:0D06F2000824047007752C0522752C0122C8
:1002FD00E52C14601D146022146024146033146006
:10030D004224057047752C011208AD20B63ED2B6B9
:10031D00803AE4F52C1208AD8032E4F525802DC32A
:10032D00E527648094BB500405278020E4F52780E1
:10033D001BC3E5266480949750040526800EE4F5D2
:10034D00268009E52BC3941E5002052BE4F52D22C2
:1003B200E52C24FE601114601314602214603124B1
:1003C200047036B2B68032E4F525802DD3E5276479
:1003D20080948040041527802075273B801BD3E53D
:1003E200266480948040041526800E7526178009A5
:0D03F200E52BD3940E4002152BE4F52D22CF
:030000000200B744
:0C00B700787FE4F6D8FD75812D0200FE74
:10014300BB010689828A83E0225002E722BBFE02BA
:09015300E32289828A83E49322ED
:10015C00BC000BBE0029EF8DF084FFADF022E4CC87
:10016C00F875F008EF2FFFEE33FEEC33FCEE9DEC50
:10017C00984005FCEE9DFE0FD5F0E9E4CEFD22ED96
:10018C00F8F5F0EE8420D21CFEADF075F008EF2FE0
:10019C00FFED33FD4007985006D5F0F222C398FDD1
:0501AC000FD5F0EA226E
:1001B100EB9FF5F0EA9E42F0E99D42F0EC6480C8C5
:0601C10064809845F02265
:1000C300020782E493A3F8E493A34003F68001F2CA
:1000D30008DFF48029E493A3F85407240CC8C3333E
:1000E300C4540F4420C8834004F456800146F6DF0D
:1000F300E4800B0102040810204080900735E47E61
:10010300019360BCA3FF543F30E509541FFEE49301
:10011300A360010ECF54C025E060A840B8E493A3C8
:10012300FAE493A3F8E493A3C8C582C8CAC583CAF3
:10013300F0A3C8C582C8CAC583CADFE9DEE780BEAB
:01074E0000AA
:00000001FF
