:1007270012096512091C1209451204881208FC12E5
:0E07370007ED12043E7FC87E0012074580E5E4
:0209770000225C
:10083A00EF1FAA0670011E4A600BE4FDEDC3940186
:05084A0050EE0D80F7E7
:01084F002286
:10074500EF1FAA0670011E4A6013E4FCFDC3ED9479
:0D0755007DEC940050EA0DBD00010C80F019
:010762002274
:0D092B00C2927FF47E01120745D292002295
:0606BE008F828E83A90566
:1006C400E4FBEBC3995015C292AF82AE8312074587
:0C06D400D292AF82AE831207450B80E685
:0106E00022F7
:10085000538E7F5389F0438901758A78758CECC279
:040860008DD28C2287
:08000300120850D2A9D2AF226D
:03000B000204C923
:0D04C900C0E0C0F0C083C082C0D075D00874
:1004D600758A78758CEC051FE51F7002051EFFAE48
:1004E6001EE4FCFD7B64FAF9F8C312019450097509
:0804F6001E00751F001205092C
:0B04FE00D0D0D082D083D0F0D0E0320C
:1008C600D2B5120977D2B4120977C2B4120977C227
:0208D600B52249
:1008D800C2B5120977D2B4120977D2B5120977C214
:0208E800B42238
:0A095100D2B5120977A2B4C2B52294
:020673008F1CDA
:10067500E4F51DE51C25E0F51C92B4120977D2B509
:10068500120977C2B5120977051DE51DC394084007
:04069500E202095123
:1005F000D2B4120977E4F51CE51D25E0F51DD2B54E
:1006000012097730B402051DC2B5120977051CE541
:0B0610001CC3940840E2120951AF1D0A
:01061B0022BC
:1008EA008F181208C67F90120673AF181206730289
:0208FA0008D81C
:1007B9001208C67F911206737F037E0012083A124F
:0907C90005F08F1B1208D8AF1BCC
:0107D2002204
:10086400C2B1C2B28FA0D2B37F017E00120745C2CB
:04087400B3D2B22227
:10087800C2B2D2B18FA0D2B37F017E00120745C2A7
:04088800B3D2B22213
:10088C007F381208647F0F1208647F0C1208647F93
:04089C0006020864E4
:0A095B007F011208647F02020864A5
:1006E1008B1A8A1B891CAB1AAA1BA91C12016DFF4C
:1006F10060101208787401251CF51CE4351BF51BEC
:0307010080E4226F
:10061C008F1AE51AD394644009E51A75F064848541
:10062C00F01AE51A75F00A842430FF120878E51ADE
:0C063C0075F00A84E5F02430FF02087815
:100821008D1AEF24FE600904700EE51A24808004FD
:09083100E51A24C0FF120864223C
:0907D30001150801161901141E9C
:0F090D00751508751619E4F514F5127513022205
:100509000511E51170020510C39513E51095124008
:100519002CE4F510F5110514E514648094BC401D14
:10052900E4F5140516E516648094BC4010E4F5164C
:0D0539000515E515648094984003E4F51560
:010546002292
:1001AA0053797374656D2053656C662D7465737429
:1001BA003A00497427732044617974696D652C008B
:1001CA0049742773204E696768742C0052696768FE
:1001DA00743F0053797374656D20496E69743A00EF
:1001EA00483A00202020202020204175746F0020EA
:1001FA00202020204D616E75616C0054696D653A4E
:10020A0020005365743A00486F7572203D20004DF6
:10021A00696E203D2000536563203D2000485F4CF5
:10022A00696D6974203D200053312C53323A2053B2
:10023A006574207A65726F0053313A20496E632CD7
:09024A002053323A2044656300A0
:1008A00012095B7BFF7A0179AA1206E1E4FD7F025F
:0308B0000208211A
:100547008F1812095B7BFF3002067A0179BC8004A1
:100557007A0179CA1206E1E4FD7F02120821E51843
:1005670075F06484FF12061CAF1812061C7D097F04
:0D057700021208217BFF7A0179D60206E10D
:020763008F17EE
:10076500E4F518E518C3951750107FFF1208787F38
:0A077500507E00120745051880E9C8
:01077F002257
:1008B30012095B7BFF7A0179DD1206E1E4FD7F0219
:0308C30002082107
:1003A00012095B7BFF7A0179EA1206E1AF2112069E
:1003B0001C7F251208787BFF3002067A0179ED80D8
:1003C000047A0179F91206E1E4FD7F021208217B2B
:1003D000FF7A0279051206E1AF1512061C7F3A1268
:1003E0000878AF1612061C7F3A120878AF1402067E
:0103F0001CF0
:1002DF008F178C188D1912095B7BFF7A02790C121C
:1002EF0006E1E51724FE601214601714601C240346
:1002FF0070217BFF7A02791180167BFF7A027919C0
:10030F00800E7BFF7A02792080067BFF7A027927A5
:10031F001206E1AF1912061CE4FD7F02120821E557
:10032F001724FD70087BFF7A02793280067BFF7AF3
:07033F000279421206E122DF
:0607DC00012100012211C1
:0F091C00D2B012097712097720B00375E7602275
:100488001207B9AB07EBC3947F400475216322EBD5
:10049800D39400E45003F52122F51AF51975188054
:1004A80075173FC3747F9BFDE49400FCE41200B30E
:1004B800AB1AAA19A918A8171200111200EC8F215B
:0104C8002211
:090965001207041205BE02096E1E
:1007040012088CE4FF1208EA1207B91207B98F170E
:10071400E517D3943C4004C2028004D202AF1712FE
:02072400054787
:0107260022B0
:1005BE001208B31209387F0412076312090D7F0463
:1005CE001207637F031208EA1207B97F041207634A
:1005DE007FC87E001207451200037F0412076302D4
:0205EE00096E94
:0D0938007580FF7590FF75A0FF75B0FF2260
:09096E007D027F327E000206BE0C
:0A07E200C100C10101240001230041
:1008FC00E523700CE521D395225003D2B622C2B663
:01090C0022C8
:1007ED00E5236013E521C39522500920B603C2B756
:0A07FD0022D2B722D2B722D2B722CF
:10043E00E52314601414601614601E1460261460F4
:10044E002E24057034D2028002C2020203A0E514EB
:10045E00FD3395E0FC7F03801DE516FD3395E0FC32
:10046E007F028012E515FD3395E0FC7F018007E5E4
:0A047E0022FD7C007F041202DF2241
:0C09450012069912058412079D0207801B
:1006990020900F20000C7F0A7E001207452090024F
:1006A900D20020910F20010C7F0A7E0012074520FD
:0506B9009102D20122B4
:10058400209009300106309103752401209109302F
:10059400000630900375240230900EE524B401095E
:1005A400300006E4F524C2002230910DE524B402A3
:0A05B40008300105E4F524C201221D
:10079D00E5247017300009309006C200752403223D
:0C07AD00300108309105C20175240422BF
:10078000E52424FE600D14600D14600D2403700C2C
:0D0790000206480208070203461203F12288
:10064800300127309124C20112092BE52324FE60D2
:100658000E14600F1460102403700F7523022275A6
:0B0668002303227523042275230122C6
:10080700300016309013C200E52324FB600824044F
:0A08170070077523052275230122E6
:10034600E52314601A14601C14601E14602D1460DA
:100356003C2405704175230130B63BC2B68037E4B4
:10036600F5238032E4F514802DC3E516648094BB32
:10037600500405168020E4F516801BC3E51564803D
:10038600949750040515800EE4F5158009E522C3FF
:0A039600941E50020522E4F5242213
:1003F100E52324FE6011146013146022146031247B
:10040100047036B2B68032E4F514802DD3E516645B
:1004110080948040041516802075163B801BD3E51F
:10042100156480948040041515800E751517800998
:0D043100E522D3940E40021522E4F52422AA
:10000E00020162EC5D046005E859047003020158B8
:10001E00120123580460F6EC4860F2EC7004FDFE09
:10002E00FF22C860DB2481C85009C39860025006C5
:10003E0002015F9850CAF582E9294B4A7005AB82DE
:10004E0002014E75F0007C1A7880C3EF9BEE9AED9C
:10005E0099400DC3EF9BFFEE9AFEED99FDE842F03D
:10006E00DC23ACF0D0E0FFD0E0FED0E0FDAB822090
:10007E00E7101BEB60BAEC2CFCEF33FFEE33FEED1A
:10008E0033FD02013AE803F830E705C0F075F000E1
:10009E00EF2FFFEE33FEED33FD40B830E7C280AAFE
:1000AE0075F020800E75F010800575F0087D007ECD
:1000BE00007F003392D530D503120186EC33401009
:1000CE00EF33FFEE33FEED33FDEC33FCD5F0ED22D6
:0E00DE00E5F0247EA2D513CC92E7CDCEFF2212
:1000EC00EDD2E7CD33EC3392D524814006E4FFFE0C
:1000FC00FDFC22FCE4CFCECDCC24E0501174FF806B
:10010C00EDC3CC13CCCD13CDCE13CECF13CF047007
:07011C00F030D5DE02018680
:10012300E9D2E7C933E833F892D5EDD2E7CD33EC22
:0701330033FC5002B2D5229B
:10013A00EC30E7100FBF000C0EBE00080DBD000426
:10014A000BEB6014A2D5EB13FCED92E7FD2274FFD2
:10015A00FCFDFEFF22E480F8A2D574FF13FC7D802B
:03016A00E480EF3F
:03000000020253A6
:0C025300787FE4F6D8FD75812402029A41
:10016D00BB010689828A83E0225002E722BBFE0290
:09017D00E32289828A83E49322C3
:0E018600C3E49FFFE49EFEE49DFDE49CFC228A
:10019400EB9FF5F0EA9E42F0E99D42F0EC6480C8E2
:0601A40064809845F02282
:10025F00020727E493A3F8E493A34003F68001F287
:10026F0008DFF48029E493A3F85407240CC8C333A0
:10027F00C4540F4420C8834004F456800146F6DF6F
:10028F00E4800B01020408102040809007D3E47E25
:10029F00019360BCA3FF543F30E509541FFEE49364
:1002AF00A360010ECF54C025E060A840B8E493A32B
:1002BF00FAE493A3F8E493A3C8C582C8CAC583CA56
:1002CF00F0A3C8C582C8CAC583CADFE9DEE780BE0E
:0107EC00000C
:00000001FF
