:1006C9001207FE1207C21207DE1208101207A21241
:0706D900069612031780ECE6
:020816000022BE
:1006E000EF1FAA0670011E4A600BE4FDEDC39402E1
:0506F00050EE0D80F743
:0106F50022E2
:1005D100EF1FAA0670011E4A6013E4FCFDC3ED94EF
:0D05E10082EC940050EA0DBD00010C80F08A
:0105EE0022EA
:020818000022BC
:06058B008F828E83A9059A
:10059100E4FBEBC3995015C292AF82AE831205D131
:0C05A100D292AF82AE831205D10B80E62F
:0105AD00222B
:1006F600538E7F5389F0438901758A78758CECC2D5
:040706008DD28C22E2
:080003001206F6D2A9D2AF22C9
:03000B000203618C
:0D036100C0E0C0F0C083C082C0D075D008DD
:10036E00758A78758CEC051FE51F7002051EFFAEB1
:10037E001EE4FCFD7B64FAF9F8C31204A45009755F
:08038E001E00751F001203A1FF
:0B039600D0D0D082D083D0F0D0E03275
:10076C00D2B5120816D2B4120816C2B4120816C2A8
:02077C00B522A4
:10077E00C2B5120816D2B4120816D2B5120816C295
:02078E00B42293
:0A07EA00D2B5120816A2B4C2B5225F
:020540008F1C0E
:10054200E4F51DE51C25E0F51C92B4120816D2B59F
:10055200120816C2B5120816051DE51DC3940840FF
:04056200E20207EAC0
:1004E800D2B4120816E4F51CE51D25E0F51DD2B5B9
:1004F80012081630B402051DC2B5120816051CE50F
:0B0508001CC3940840E21207EAAF1D7C
:0105130022C5
:100790008F1812076C7F90120540AF1812054002A7
:0207A000077ED2
:1006620012076C7F911205407F037E001206E01292
:0906720004E88F1B12077EAF1B88
:01067B00225C
:10070A00C2B1C2B28FA0D2B37F017E001205D1C29C
:04071A00B3D2B22282
:10071E00C2B2D2B18FA0D2B37F017E001205D1C278
:04072E00B3D2B2226E
:100732007F3812070A7F0F12070A7F0C12070A7FFF
:040742000602070A9A
:0A07F4007F0112070A7F0202070AC4
:1005AE008B1A8A1B891CAB1AAA1BA91C12048BFF5F
:1005BE00601012071E7401251CF51CE4351BF51B7B
:0305CE0080E422A4
:100514008F1AE51AD394644009E51A75F06484854A
:10052400F01AE51A75F00A842430FF12071EE51A42
:0C05340075F00A84E5F02430FF02071E79
:1006B0008D1AEF24FE600904700EE51A2480800470
:0906C000E51A24C0FF12070A220A
:09067C0001150801161901141EF4
:0F07B300751508751619E4F514F5127513022261
:1003A1000511E51170020510C39513E51095124072
:1003B1002CE4F510F5110514E514648094BC401D7E
:1003C100E4F5140516E516648094BC4010E4F516B6
:0D03D1000515E515648094984003E4F515CA
:0103DE0022FC
:10000E0053797374656D2053656C662D74657374C6
:10001E003A00497427732044617974696D652C0028
:10002E0049742773204E696768742C00526967689B
:10003E00743F0053797374656D20496E69743A008C
:10004E00483A0020202020204175746F0020202087
:10005E004D616E75616C0054696D653A2000536593
:10006E00743A00486F7572203D20004D696E203D38
:10007E002000536563203D2000485F4C696D697414
:10008E00203D200053312C53323A20536574207A90
:10009E0065726F0053313A20496E632C2053323A09
:0500AE00204465630021
:100746001207F47BFF7A00790E1205AEE4FD7F02F4
:030756000206B0E8
:1003DF008F181207F47BFF3002067A007920800411
:1003EF007A00792E1205AEE4FD7F021206B0E518F1
:1003FF0075F06484FF120514AF181205147D097F80
:0D040F00021206B07BFF7A00793A0205AEBA
:0205EF008F1863
:1005F100E4F519E519C3951850107FFF12071E7F06
:0A060100507E001205D1051980E9B2
:01060B0022CC
:100759001207F47BFF7A0079411205AEE4FD7F02AE
:030769000206B0D5
:10026B00E4FD7F011206B07BFF7A00794E1205AEDA
:10027B00E52175F06484FF120514AF211205147F7C
:10028B002512071E7BFF3002067A00795180047A13
:10029B0000795B1205AEE4FD7F021206B07BFF7A9C
:1002AB000079651205AEAF151205147F3A12071EC1
:0F02BB00AF161205147F3A12071EAF1402051476
:10013F008F178C188D19E4FD7F011206B07BFF7AA3
:10014F0000796C1205AEE51724FE601214601714C7
:10015F00601C240370217BFF7A00797180167BFF6E
:10016F007A007979800E7BFF7A00798080067BFF99
:10017F007A0079871205AEAF19120514E4FD7F02DC
:10018F001206B0E51724FD70087BFF7A0079928084
:0B019F00067BFF7A0079A21205AE2259
:0606850001210001221119
:0F07C200D2B012081612081620B00375E7602295
:050810001206628F21B9
:0108150022C0
:0907FE001201AA120456020807B8
:1001AA001207327F011207901206621207467F0277
:1001BA001205EFC2927F207E031205D1D2927F04EC
:1001CA001205EFC2B67FF47E011205D1D2B67F04C2
:1001DA001205EFC2B77F2C7E011205D1D2B77F0478
:1001EA001205EF1206628F17E517D394784004C2FE
:1001FA00028004D202AF171203DF7FDC7E050205FC
:01020A00D122
:100456001207591207D17F041205EF1207B37F0462
:100466001205EF7F031207901206627F041205EF52
:100476007FC27E011205D11200037F041205EF121E
:0504860008070207F465
:0D07D1007580FF7590FF75A0FF75B0FF22C9
:090807007D027F327E0002058BA8
:0A068B00C100C10101240001230099
:1007A200E523700CE521D395225003C2B622D2B6BE
:0107B2002224
:10069600E5236013E521C39522500930B603C2B79E
:0A06A60022D2B722D2B722D2B72227
:10031700E52314601414601614601E14602614601C
:100327002E24057034D2028002C20202026BE51449
:10033700FD3395E0FC7F03801DE516FD3395E0FC5A
:100347007F028012E515FD3395E0FC7F018007E50C
:0A03570022FD7C007F0412013F220A
:0C07DE0012056612041C12064602060CEE
:1005660020900F20000C7F0A7E001205D1209002F9
:10057600D20020910F20010C7F0A7E001205D120A7
:050586009102D20122E8
:10041C002090093001063091037524012091093098
:10042C00000630900375240230900EE524B40109C7
:10043C00300006E4F524C2002230910DE524B4020C
:0A044C0008300105E4F524C2012286
:10064600E5247017300009309006C2007524032295
:0C065600300108309105C2017524042217
:10060C00E52424FE600D14600D14600D2403700CA1
:0D061C000204BA02062902020B1202CA22D1
:1004BA0030012A309127C2011207F4120818E523E5
:1004CA0024FE600E14600F1460102403700F75234D
:0E04DA000222752303227523042275230122BA
:10062900300019309016C2001207F4E52324FB604C
:0D0639000824047007752305227523012293
:10020B00E52314601D146022146024146033146001
:10021B0042240570477523011207F420B63ED2B66F
:10022B00803AE4F5231207F48032E4F514802DC3F1
:10023B00E516648094BB500405168020E4F5168007
:10024B001BC3E5156480949750040515800EE4F5E7
:10025B00158009E522C3941E50020522E4F52422E1
:1002CA00E52324FE601114601314602214603124A3
:1002DA00047036B2B68032E4F514802DD3E5166484
:1002EA0080948040041516802075163B801BD3E548
:1002FA00156480948040041515800E7515178009C1
:0D030A00E522D3940E40021522E4F52422D2
:030000000200B348
:0C00B300787FE4F6D8FD7581240200FA85
:10048B00BB010689828A83E0225002E722BBFE026F
:09049B00E32289828A83E49322A2
:1004A400EB9FF5F0EA9E42F0E99D42F0EC6480C8CF
:0604B40064809845F0226F
:1000BF000206C9E493A3F8E493A34003F68001F288
:1000CF0008DFF48029E493A3F85407240CC8C33342
:1000DF00C4540F4420C8834004F456800146F6DF11
:1000EF00E4800B010204081020408090067CE47E1F
:1000FF00019360BCA3FF543F30E509541FFEE49306
:10010F00A360010ECF54C025E060A840B8E493A3CC
:10011F00FAE493A3F8E493A3C8C582C8CAC583CAF7
:10012F00F0A3C8C582C8CAC583CADFE9DEE780BEAF
:010695000064
:00000001FF
