:100796001209461208FD12092612048312087E1257
:0B07A60004397FC87E0012072280E8A3
:0209580000227B
:0D090C00C2927FF47E01120722D2920022D7
:10081800EF1FAA0670011E4A600BE4FDEDC39401A8
:0508280050EE0D80F709
:01082D0022A8
:10072200EF1FAA0670011E4A6013E4FCFDC3ED949C
:0D0732007DEC940050EA0DBD00010C80F03C
:01073F002297
:0606B9008F828E83A9056B
:1006BF00E4FBEBC3995015C292AF82AE83120722AF
:0C06CF00D292AF82AE831207220B80E6AD
:0106DB0022FC
:10082E00538E7F5389F0438901758A78758CECC29B
:04083E008DD28C22A9
:0800030012082ED2A9D2AF228F
:03000B000204C428
:0D04C400C0E0C0F0C083C082C0D075D00879
:1004D100758A78758CEC051FE51F7002051EFFAE4D
:1004E1001EE4FCFD7B64FAF9F8C31201945009750E
:0804F1001E00751F0012050436
:0B04F900D0D0D082D083D0F0D0E03211
:1008B800D2B5120958D2B4120958C2B4120958C292
:0208C800B52257
:1008CA00C2B5120958D2B4120958D2B5120958C27F
:0208DA00B42246
:0A093200D2B5120958A2B4C2B522D2
:02066E008F1CDF
:10067000E4F51DE51C25E0F51C92B4120958D2B52D
:10068000120958C2B5120958051DE51DC39408404A
:04069000E202093247
:1005EB00D2B4120958E4F51CE51D25E0F51DD2B572
:1005FB0012095830B402051DC2B5120958051CE585
:0B060B001CC3940840E2120932AF1D2E
:0106160022C1
:1008DC008F181208B87F9012066EAF1812066E02AF
:0208EC0008CA38
:1007B1001208B87F9112066E7F037E00120818128C
:0907C10005EB8F1B1208CAAF1BE7
:0107CA00220C
:10084200C2B1C2B28FA0D2B37F017E00120722C210
:04085200B3D2B22249
:10085600C2B2D2B18FA0D2B37F017E00120722C2EC
:04086600B3D2B22235
:10086A007F381208427F0F1208427F0C1208427F1B
:04087A000602084228
:0A093C007F011208427F0202084208
:1006DC008B1A8A1B891CAB1AAA1BA91C12016DFF51
:1006EC0060101208567401251CF51CE4351BF51B13
:0306FC0080E42275
:100617008F1AE51AD394644009E51A75F064848546
:10062700F01AE51A75F00A842430FF120856E51A05
:0C06370075F00A84E5F02430FF0208563C
:1007FF008D1AEF24FE600904700EE51A2480800420
:09080F00E51A24C0FF1208422280
:0907CB0001150801161901141EA4
:0F08EE00751508751619E4F514F5127513022225
:100504000511E51170020510C39513E5109512400D
:100514002CE4F510F5110514E514648094BC401D19
:10052400E4F5140516E516648094BC4010E4F51651
:0D0534000515E515648094984003E4F51565
:010541002297
:1001AA0053797374656D2053656C662D7465737429
:1001BA003A00497427732044617974696D652C008B
:1001CA0049742773204E696768742C0052696768FE
:1001DA00743F0053797374656D20496E69743A00EF
:1001EA00483A00202020202020204175746F0020EA
:1001FA00202020204D616E75616C0054696D653A4E
:10020A0020005365743A00486F7572203D20004DF6
:10021A00696E203D2000536563203D2000485F4CF5
:10022A00696D6974203D200053312C53323A2053B2
:10023A006574207A65726F0053313A20496E632CD7
:09024A002053323A2044656300A0
:1008920012093C7BFF7A0179AA1206DCE4FD7F0291
:0308A2000207FF4B
:100542008F1812093C7BFF3002067A0179BC8004C5
:100552007A0179CA1206DCE4FD7F021207FFE51870
:1005620075F06484FF120617AF181206177D097F13
:0D057200021207FF7BFF7A0179D60206DC3A
:020740008F1711
:10074200E4F518E518C3951750107FFF1208567F7D
:0A075200507E00120722051880E90E
:01075C00227A
:1008A50012093C7BFF7A0179DD1206DCE4FD7F024B
:0308B5000207FF38
:10039B0012093C7BFF7A0179EA1206DCAF211206C7
:1003AB00177F251208567BFF3002067A0179ED8004
:1003BB00047A0179F91206DCE4FD7F021207FF7B58
:1003CB00FF7A0279051206DCAF151206177F3A1277
:1003DB000856AF161206177F3A120856AF140206CC
:0103EB0017FA
:1002DF008F178C188D1912093C7BFF7A02790C123B
:1002EF0006DCE51724FE601214601714601C24034B
:1002FF0070217BFF7A02791180167BFF7A027919C0
:10030F00800E7BFF7A02792080067BFF7A027927A5
:10031F001206DCAF19120617E4FD7F021207FFE584
:10032F001724FD70087BFF7A02793280067BFF7AF3
:07033F000279421206DC22E4
:0607D400012100012211C9
:0F08FD00D2B012095812095820B00375E76022D3
:100483001207B1AB07EBC3947F400475216322EBE2
:10049300D39400E45003F52122F51AF51975188059
:1004A30075173FC3747F9BFDE49400FCE41200B313
:1004B300AB1AAA19A918A8171200111200EC8F2160
:0104C3002216
:090946001206FF1205B902094F67
:1006FF0012086AE4FF1208DC1207B11207B18F1754
:10070F00E517D3943C4004C2028004D202AF171203
:02071F00054291
:0107210022B5
:1005B9001208A51209197F041207401208EE7F04D8
:1005C9001207407F031208DC1207B17F04120740AB
:1005D9007FC87E001207221200037F04120740021F
:0205E900094FB8
:0D0919007580FF7590FF75A0FF75B0FF227F
:09094F007D027F327E000206B930
:0A07DA00C100C10101240001230049
:10087E00E523600DE521C395225003C2B722D2B7FE
:04088E0022D2B72299
:10043900E52314601414601614601E1460261460F9
:100449002E24057034D2028002C20202039BE514F5
:10045900FD3395E0FC7F03801DE516FD3395E0FC37
:100469007F028012E515FD3395E0FC7F018007E5E9
:0A04790022FD7C007F041202DF2246
:0C09260012069412057F12077A02075D8A
:1006940020900F20000C7F0A7E0012072220900277
:1006A400D20020910F20010C7F0A7E001207222025
:0506B4009102D20122B9
:10057F002090093001063091037524012091093034
:10058F00000630900375240230900EE524B4010963
:10059F00300006E4F524C2002230910DE524B402A8
:0A05AF0008300105E4F524C2012222
:10077A00E5247017300009309006C2007524032260
:0C078A00300108309105C20175240422E2
:10075D00E52424FE600D14600D14600D2403700C4F
:0D076D000206430207E50203461203EC22D8
:10064300300127309124C20112090CE52324FE60F6
:100653000E14600F1460102403700F7523022275AB
:0B0663002303227523042275230122CB
:1007E500300016309013C200E52324FB6008240472
:0A07F5007007752305227523012209
:10034600E5231460151460171460191460281460EE
:10035600372405703C7523018037E4F5238032E4A9
:10036600F514802DC3E516648094BB5004051680F1
:1003760020E4F516801BC3E51564809497500405A8
:1003860015800EE4F5158009E522C3941E5002057A
:0503960022E4F5242221
:1003EC00E52324FE60111460131460221460312480
:1003FC00047036B2B68032E4F514802DD3E5166461
:10040C0080948040041516802075163B801BD3E524
:10041C00156480948040041515800E75151780099D
:0D042C00E522D3940E40021522E4F52422AF
:10000E00020162EC5D046005E859047003020158B8
:10001E00120123580460F6EC4860F2EC7004FDFE09
:10002E00FF22C860DB2481C85009C39860025006C5
:10003E0002015F9850CAF582E9294B4A7005AB82DE
:10004E0002014E75F0007C1A7880C3EF9BEE9AED9C
:10005E0099400DC3EF9BFFEE9AFEED99FDE842F03D
:10006E00DC23ACF0D0E0FFD0E0FED0E0FDAB822090
:10007E00E7101BEB60BAEC2CFCEF33FFEE33FEED1A
:10008E0033FD02013AE803F830E705C0F075F000E1
:10009E00EF2FFFEE33FEED33FD40B830E7C280AAFE
:1000AE0075F020800E75F010800575F0087D007ECD
:1000BE00007F003392D530D503120186EC33401009
:1000CE00EF33FFEE33FEED33FDEC33FCD5F0ED22D6
:0E00DE00E5F0247EA2D513CC92E7CDCEFF2212
:1000EC00EDD2E7CD33EC3392D524814006E4FFFE0C
:1000FC00FDFC22FCE4CFCECDCC24E0501174FF806B
:10010C00EDC3CC13CCCD13CDCE13CECF13CF047007
:07011C00F030D5DE02018680
:10012300E9D2E7C933E833F892D5EDD2E7CD33EC22
:0701330033FC5002B2D5229B
:10013A00EC30E7100FBF000C0EBE00080DBD000426
:10014A000BEB6014A2D5EB13FCED92E7FD2274FFD2
:10015A00FCFDFEFF22E480F8A2D574FF13FC7D802B
:03016A00E480EF3F
:03000000020253A6
:0C025300787FE4F6D8FD75812402029A41
:10016D00BB010689828A83E0225002E722BBFE0290
:09017D00E32289828A83E49322C3
:0E018600C3E49FFFE49EFEE49DFDE49CFC228A
:10019400EB9FF5F0EA9E42F0E99D42F0EC6480C8E2
:0601A40064809845F02282
:10025F00020796E493A3F8E493A34003F68001F218
:10026F0008DFF48029E493A3F85407240CC8C333A0
:10027F00C4540F4420C8834004F456800146F6DF6F
:10028F00E4800B01020408102040809007CBE47E2D
:10029F00019360BCA3FF543F30E509541FFEE49364
:1002AF00A360010ECF54C025E060A840B8E493A32B
:1002BF00FAE493A3F8E493A3C8C582C8CAC583CA56
:1002CF00F0A3C8C582C8CAC583CADFE9DEE780BE0E
:0107E4000014
:00000001FF
