:1001750012026012021612026D7F0312024E120065
:0C0185000312027A12028612019180F827
:0202B200002228
:1001C400EF1FAA0670011E4A600BE4FDEDC3940103
:0501D40050EE0D80F764
:0101D9002203
:10015700EF1FAA0670011E4A6013E4FCFDC3ED946D
:0D0167007DEC940050EA0DBD00010C80F00D
:010174002268
:0D0260007580FF7590FF75A0FF75B0FF223F
:0C027A00C2927F0A7E00120157D292222D
:0C028600D2B01202B220B00375E7602273
:1001DA00538E7F5389F0438901758A78758CECC2F6
:0401EA008DD28C2204
:080003001201DAD2A9D2AF22EA
:03000B0002000EE2
:0D000E00C0E0C0F0C083C082C0D075D00833
:10001B00758A78758CEC051EE51E7002051DFFAE0A
:10002B001DE4FCFD7B64FAF9F8C312009F500975BF
:08003B001D00751E0012004EAD
:0B004300D0D0D082D083D0F0D0E032CB
:10022A00D2B51202B2D2B41202B2C2B41202B2C22D
:02023A00B522EB
:10023C00C2B51202B2D2B41202B2D2B51202B2C21A
:02024C00B422DA
:0A029E00D2B51202B2A2B4C2B5221A
:02010E008F1B45
:10011000E4F51CE51B25E0F51B92B41202B2D2B542
:100120001202B2C2B51202B2051CE51CC39408400B
:04013000E202029E47
:1000E200D2B41202B2E4F51BE51C25E0F51CD2B530
:1000F2001202B230B402051CC2B51202B2051BE5EF
:0B0102001BC3940840E212029EAF1CD9
:01010D0022CF
:10024E008F1A12022A7F9012010EAF1A12010E029D
:02025E00023C60
:1001910012022A7F9112010E7F037E001201C41206
:0901A10000E28F1A12023CAF1AB1
:0101AA002232
:1001EE00C2B3C2B28FA0D2B17F017E00120157C23C
:0401FE00B1D2B222A6
:10020200C2B2D2B38FA0D2B17F017E00120157C217
:04021200B1D2B22291
:100216007F381201EE7F0F1201EE7F0C1201EE7F86
:04022600060201EEDD
:0A02A8007F011201EE7F020201EE59
:100134008B178A188919AB17AA18A919120086FFF8
:10014400601012020274012519F519E43518F51826
:0301540080E42222
:1000B5008F1FE51FD394644023E51F75F064848585
:1000C500F01FE51F75F00A842430FF120202E51FB8
:0D00D50075F00A84E5F02430FF12020222CB
:1001AB008D20EF24FE600904700EE520248080046E
:0901BB00E52024C0FF1201EE2230
:0D026D00E4F515F516F514F51275130222CF
:10004E000511E51170020510C39513E510951240C8
:10005E0026E4F510F5110514E514943C4019E4F569
:10006E00140516E516943C400EE4F5160515E51537
:07007E0094184003E4F5159E
:010085002258
:0300000002029267
:0C029200787FE4F6D8FD7581200201752C
:10008600BB010689828A83E0225002E722BBFE0278
:09009600E32289828A83E49322AB
:10009F00EB9FF5F0EA9E42F0E99D42F0EC6480C8D8
:0600AF0064809845F02278
:00000001FF
